:1000000009C00EC00DC00CC00BC00AC009C008C09A
:1000100007C006C011241FBECFE9CDBF02D02EC03D
:10002000EFCF8FB780688FBF81B5886181BD81B503
:10003000897E81BD81B5896281BDBC9A81E090E0F5
:1000400001C001969C012150310920FF0CC0C49AC7
:1000500025B7206225BF25B7206125BF25B7277F9B
:1000600025BF8895EECFC4982FE73AE146E02150AE
:1000700030404040E1F700C00000E3CFF894FFCFEC
:00000001FF
