S01000005761746368446F672E7372656303
S113000009C00EC00DC00CC00BC00AC009C008C096
S113001007C006C011241FBECFE9CDBF02D041C026
S1130020EFCF8FB780688FBF81B5866081BD81B502
S11300308C7F81BD81B5856081BD81B58D7F81BD9A
S113004081B58E7F81BD81B581BDBA9AC29A2FE7F1
S11300503AE146E0215030404040E1F700C0000062
S1130060C29881E090E001C001969C0121503109C1
S113007020FF0CC0C29A25B7256025BF25B7246090
S113008025BF25B72C7F25BF8895EECFC2982FE7D3
S11300903AE146E0215030404040E1F700C0000022
S10900A0E3CFF894FFCF4A
S9030000FC
